:1002D8000C0C0000000000000000000000000218E4
:0A02E80000000208FFFF020A0000F8
:1002B800E51925E0240CF8E6FE08E6FF12011A8F7E
:0502C800807F647E0050
:0B02CD00EF1FAC0670011E4C70F62203
:07000600D288D2A8D2AF227C
:0702F300D28AD2AAD2AF2289
:10011A00EE60030201AFEFB4100040030201AF909A
:10012A000130F828287302016002016502016A029F
:10013A00016F02017402017902017E020183020148
:10014A008802018D02019202019702019C0201A11B
:10015A000201A60201AB7E007F3F227E007F0622BB
:10016A007E007F5B227E007F4F227E007F66227E9A
:10017A00007F6D227E007F7D227E007F07227E0027
:10018A007F7F227E007F6F227E007F77227E007F24
:10019A007C227E007F39227E007F5E227E007F796C
:0601AA00227E007F71229D
:100016001200061202F3E4F50AF50BE4F518F519D9
:10002600E51965097004E51865086045E518703B33
:10003600E51914601414601514601A14601F146016
:100046002424057026D2A48016D2A4801AD2A4C273
:10005600A3D2A28016D2A4C2A3C2A2800EC2A4D2E8
:10006600A3D2A28006C2A4D2A3C2A21202B8E4F509
:10007600800519E51970020518C39406E518648011
:100086009480409C050BE50B7002050AC39450E56D
:100096000A648094804084E4F50AF50BC3E50B946A
:1000A60050E50A64809480400302001CE4F518F5CC
:1000B60019E518703BE51914601414601514601ADC
:1000C60014601F14602424057026D2A48016D2A4BE
:1000D600801AD2A4C2A3D2A28016D2A4C2A3C2A25C
:1000E600800EC2A4D2A3D2A28006C2A4D2A3C2A268
:1000F6001202B8E4F5800519E51970020518C394D3
:1001060006E5186480948040A8050BE50B7002058F
:040116000A0200A237
:030003000202886E
:10028800C0E0C0D075D000C004C006C0071202C9C3
:1002980020B2120509E509700205086407450870CF
:1002A80004F508F509D007D006D004D0D0D0E03244
:0300130002023CAA
:10023C00C0E0C0D075D000C000C004C006C007121A
:10024C0002C920B32AAF09EF25E0240CF80806E612
:10025C0018700106EF25E0240CF8E6FE08E6640AA7
:10026C004E700CE50925E0240CF87600087600D0D9
:0C027C0007D006D004D000D0D0D0E03273
:030000000201B04A
:0C01B000787FE4F6D8FD7581190201F794
:1001BC00020016E493A3F8E493A34003F68001F243
:1001CC0008DFF48029E493A3F85407240CC8C33344
:1001DC00C4540F4420C8834004F456800146F6DF13
:1001EC00E4800B01020408102040809002D8E47EC9
:1001FC00019360BCA3FF543F30E509541FFEE49308
:10020C00A360010ECF54C025E060A840B8E493A3CE
:10021C00FAE493A3F8E493A3C8C582C8CAC583CAF9
:10022C00F0A3C8C582C8CAC583CADFE9DEE780BEB1
:0102F200000B
:00000001FF
