:0F0181000209C350010800020B0000020D00002C
:040191007F507EC35A
:0B019500EF1FAC0670011E4C70F6223C
:07000600D288D2A8D2AF227C
:0701A000D28AD2AAD2AF22DD
:1000A2001201A0120006AF087E00EF700375A0FFD8
:1000B200EF64014E70F075A0FE120191E4F50FC3DA
:1000C200E50F94077480948050F2E50C450B60FABA
:1000D200AF0FA8077401088002C333D8FCF4F5A05F
:1000E200E50A150AAE09700215094E6014E50E45BF
:1000F2000D60ED120191E4F5A012019175A0FF804F
:05010200EC050F80BABE
:03000300020107F0
:10010700C0E0C0D075D000C004C006C0077F647EC1
:100117000012019520B21F0508E50C450B70047FFE
:100127000180027F00750B008F0CE50C450B7006F4
:10013700750FFF75A0FF30B2FDD007D006D004D0F1
:04014700D0D0E03202
:0300130002014B9C
:10014B00C0E0C0D075D000C004C006C0077F647E7D
:10015B000012019520B311E50E450D70047F01804F
:10016B00027F00750D008F0E30B3FDD007D006D087
:06017B0004D0D0D0E032F8
:03000000020016E5
:0C001600787FE4F6D8FD75810F02005DD4
:100022000200A2E493A3F8E493A34003F68001F252
:1000320008DFF48029E493A3F85407240CC8C333DF
:10004200C4540F4420C8834004F456800146F6DFAE
:10005200E4800B0102040810204080900181E47EBC
:10006200019360BCA3FF543F30E509541FFEE493A3
:10007200A360010ECF54C025E060A840B8E493A36A
:10008200FAE493A3F8E493A3C8C582C8CAC583CA95
:10009200F0A3C8C582C8CAC583CADFE9DEE780BE4D
:01019000006E
:00000001FF
