:1002B40010183F065B4F666D7D077F6F777C395E54
:1002C40079711008EEDEBE7EEDDDBD7DEBDBBB7B20
:1002D400E7D7B77708287D40404040404040013090
:0102E4001009
:04034C007F647E004C
:0B035000EF1FAC0670011E4C70F6227F
:100331007D6E7C00EF1FAA0670011E4A600CED1D48
:0B034100AA0470011C4A60EC80F4224A
:1001FB00EFB410005066900208F8282873020238FA
:10020B0002023B02023E0202410202440202470288
:10021B00024A02024D02025002025302025602022D
:10022B005902025C02025F0202620202657F3F22F8
:10023B007F06227F5B227F4F227F66227F6D227F8C
:10024B007D227F07227F7F227F6F227F77227F7C19
:0D025B00227F39227F5E227F79227F71226F
:100179008B318A3289338D34E4F535E535C39534CD
:10018900506FE535B40800504D900199F82828734F
:100199000201B10201B50201B90201BD0201C102A8
:1001A90001C90201D10201D9D2A4800ED2A48012C0
:1001B900D2A48016D2A4801AC2A4D2A3D2A2801635
:1001C900C2A4D2A3C2A2800EC2A4C2A3D2A2800694
:1001D900C2A4C2A3C2A2AB31AA32A93385358275A2
:1001E90083001202E6F58012034CE4F580053580A0
:0201F9008A2258
:10000300E4F5367590F7AF90EF64F7602812034C70
:10001300AF90EF2449601124E0601224F0601324B0
:10002300707012753601800D7536058008753609B6
:10003300800375360DAF90EF64F770F97590FBAFE1
:1000430090EF64FB602812034CAF90EF24456011DE
:1000530024E0601224F0601324707012753602805D
:100063000D753606800875360A800375360EAF9017
:10007300EF64FB70F97590FDAF90EF64FD6028129B
:10008300034CAF90EF2443601124E0601224F0602E
:100093001324707012753603800D7536078008754A
:1000A300360B800375360FAF90EF64FD70F97590D2
:1000B300FEAF90EF64FE602812034CAF90EF244232
:1000C300601124E0601224F06013247070127536FE
:1000D30004800D753608800875360C80037536105C
:0A00E300AF90EF64FE70F9AF362213
:100268007590F0E59054F064F0603E12034CE59010
:1002780054F064F06017E59054F07A00FB75900F25
:10028800E590540F4203E47F64FE120350E4FFFE3E
:1002980074082FF8E6B50305E4B50201220FBF0084
:0C02A800010EEF64104E70E8227F10225F
:100313001202688F30EF6410600774182FF8E6F547
:0E032300287B007A0079287D0112017980E2A2
:030000000200ED0E
:0C00ED00787FE4F6D8FD758136020134FE
:1002E600BB010CE58229F582E5833AF583E02250CD
:1002F60006E92582F8E622BBFE06E92582F8E22217
:0D030600E58229F582E5833AF583E4932230
:1000F900020313E493A3F8E493A34003F68001F207
:1001090008DFF48029E493A3F85407240CC8C33307
:10011900C4540F4420C8834004F456800146F6DFD6
:10012900E4800B01020408102040809002B4E47EB0
:10013900019360BCA3FF543F30E509541FFEE493CB
:10014900A360010ECF54C025E060A840B8E493A392
:10015900FAE493A3F8E493A3C8C582C8CAC583CABD
:10016900F0A3C8C582C8CAC583CADFE9DEE780BE75
:0102E5000018
:00000001FF
